:020000040800F2
:10000000A0CA002095020008AD600008AF6000089B
:10001000B3600008B7600008BB6000080000000083
:10002000000000000000000000000000BF600008A9
:10003000C160000800000000C3600008C56000083F
:10004000AF020008AF020008AF020008AF020008CC
:10005000AF020008AF020008AF020008AF020008BC
:10006000AF020008AF020008AF020008AF020008AC
:10007000AF020008AF020008AF020008AF0200089C
:10008000AF020008AF020008AF020008AF0200088C
:10009000AF020008AF020008AF020008AF0200087C
:1000A000AF020008AF020008AF020008AF0200086C
:1000B000AF020008AF020008AF020008AF0200085C
:1000C000AF020008AF020008AF020008AF0200084C
:1000D000AF020008AF020008AF020008AF0200083C
:1000E000ED600008AF020008AF0200080000000049
:1000F0000000000000000000000000000000000000
:100100000000000000000000AF020008AF0200087D
:10011000AF020008AF020008AF020008AF020008FB
:10012000AF020008AF020008AF020008AF020008EB
:10013000AF020008CD600008AF020008AF0200085F
:10014000AF020008AF020008AF020008AF020008CB
:1001500000F002F800F05FF80AA090E8000C82447A
:100160008344AAF10107DA4501D100F054F8AFF257
:10017000090EBAE80F0013F0010F18BFFB1A43F085
:100180000103184774CB000094CB00000A444FF0E1
:10019000000C10F8013B13F0070408BF10F8014BE6
:1001A0001D1108BF10F8015B641E05D010F8016B2B
:1001B000641E01F8016BF9D113F0080F1EBF10F88F
:1001C000014BAD1C0C1B09D16D1E58BF01F801CBB2
:1001D000FAD505E014F8016B01F8016B6D1EF9D535
:1001E0009142D6D37047000000230024002500264A
:1001F000103A28BF78C1FBD8520728BF30C148BF8A
:100200000B60704764290BF04180002070471FB5D8
:100210001FBD10B510BD0BF018FA1146FFF7F7FF20
:1002200000F00EF80BF036FA03B4FFF7F2FF03BC50
:100230000BF03AFA10B51548006805F0ADFE10BD98
:1002400006F016F901F089FF00231A4619461846F0
:1002500001F09AFF05F06CFE05F03EF801E0FFF7B3
:10026000E9FFFCE7094909680144094A116000BF38
:1002700007490968054A12689142F9D8704703484E
:1002800000680A3001490860704700000000002043
:10029000040000200948804709480047FEE7FEE7C0
:1002A000FEE7FEE7FEE7FEE7FEE7FEE7FEE7FEE726
:1002B00004480549054A064B70470000E50300085D
:1002C00051010008A0C40020A0CA0020A0C6002040
:1002D000A0C600200CB50020019000909048006856
:1002E00040F480308E49086000BF8D48006800F4FB
:1002F000003000900198401C0190009818B90198B6
:10030000B0F5A06FF1D18648006800F4003010B15C
:100310000120009001E000200090009801285CD1AD
:100320008048006840F010007E4908600846006878
:1003300020F0030008600846006840F002000860F2
:1003400077484068764948600846406848600846F3
:10035000406840F4806048600846C06A72490840BE
:100360006F49C8620846C06A704908436C49C86250
:100370000846006840F08060086000BF6848006878
:1003800000F000600028F9D06548406820F47C1037
:10039000634948600846406840F4E81048600846F1
:1003A000006840F08070086000BF5D48006800F0A1
:1003B00000700028F9D05A48406820F003005849DE
:1003C00048600846406840F00200486000BF54485A
:1003D000406800F00C000828F9D10CBD10B5FFF7FB
:1003E00079FF10BD10B54E48006840F001004C493F
:1003F0000860084640684E49084049494860084638
:1004000000684C490840464908600846006820F4E6
:10041000802008600846406820F4FE0048600846D6
:10042000006820F0A05008604FF47F008860002032
:10043000C862FFF7D3FF10BDF0B5002100200023F4
:100440000024002200250026354F7F6807F00C01AC
:1004500021B1042908D008294BD10BE0364FDFF831
:10046000DCC0CCF800704AE0354FDFF8D0C0CCF8E3
:10047000007044E02A4F7F6807F47010284F7F68AF
:1004800007F48033800C0D2801D0801C00E006208A
:1004900033B92C4F4743DFF8A4C0CCF8007027E0F5
:1004A0001F4FFF6A07F480341D4FFF6A07F00F07E4
:1004B0007A1C44B9224FB7FBF2F74743DFF87CC000
:1004C000CCF8007014E0164FFF6AC7F303177D1CC9
:1004D000134FFF6AC7F30327BE1C194FB7FBF5F78D
:1004E0007743B7FBF2F74743DFF850C0CCF8007012
:1004F00005E0114FDFF844C0CCF8007000BF00BF2A
:10050000074F7F68C7F30317DFF83CC01CF80710DC
:100510000A4F3F68CF40DFF824C0CCF80070F0BD30
:10052000001002400020024000F0FEFF44060100DF
:100530000000FFF0FFFFF6FE00127A00200100200D
:1005400040787D0100093D0024010020314901432C
:10055000314A1160704770B5002100230F22C47822
:1005600004B32D4C246804F4E064C4F5E064210A6B
:10057000C1F10403CA40447804FA03F184781440BA
:1005800021430901254C0678A155047804F01F0584
:100590000124AC4005786D11AD0005F1E025C5F8EA
:1005A000004109E0047804F01F050124AC401C4D13
:1005B0000678761145F8264070BD1A4A0A40024373
:1005C000154B1B1F1A60704739B1134A121D126870
:1005D0000243114B1B1D1A6006E00F4A121D1268E0
:1005E00082430D4B1B1D1A607047042808D14FF041
:1005F000E021096941F004014FF0E022116107E0B8
:100600004FF0E021096921F004014FF0E02211616F
:10061000704700000000FA050CED00E000E400E087
:1006200080E100E080FFFF1F10B50446FA488442D5
:1006300008D10121401501F0A1F80021601501F059
:100640009DF817E0F548844208D10121001501F01A
:1006500095F80021201501F091F80BE0F048844254
:1006600008D10121C80301F089F800214FF40040AE
:1006700001F084F810BD30B5024600200023506818
:10068000E84C20400D790C6844EA05242043506072
:100690009068E54C2040D1E902542C434D7944EA5E
:1006A000450420439060D06A20F470000C7C641EE6
:1006B000E4B2234340EA0350D06230BD0021016020
:1006C000017141718160C16001210174704721B1E4
:1006D000826842F00102826003E0826822F0010237
:1006E0008260704721B1826842F48072826003E0C8
:1006F000826822F480728260704710B50023CBB20A
:100700001AB144681C43446002E044689C4344605E
:1007100010BD816841F008018160704701460020EA
:100720008A6802F008020AB1012000E00020704748
:10073000816841F0040181607047014600208A68A9
:1007400002F004020AB1012000E00020704721B14C
:10075000826842F4A002826003E0826822F4A00270
:1007600082607047014600208A6802F480020AB164
:10077000012000E00020704710B50A460021002348
:10078000416821F46041531E41EA4331416010BD8C
:1007900021B1426842F40062426003E0426822F400
:1007A000006242607047F0B504460D46002000210B
:1007B000092D11DDE068A5F10A0606EB46070726BC
:1007C00006FA07F18843A5F10A0606EB460603FA86
:1007D00006F10843E0600CE0206905EB45070726B9
:1007E00006FA07F1884305EB450603FA06F10843CC
:1007F0002061072A0FDA606B561E06EB86071F265C
:1008000006FA07F18843561E06EB860605FA06F13E
:100810000843606322E00D2A0FDA206BD61F06EB37
:1008200086071F2606FA07F18843D61F06EB8606C1
:1008300005FA06F10843206310E0E06AA2F10D0614
:1008400006EB86071F2606FA07F18843A2F10D067C
:1008500006EB860605FA06F10843E062F0BD21B119
:10086000826842F48012826003E0826822F480127F
:10087000826070470146C86C80B2704766484C3051
:100880000068704721B1426842F48062426003E030
:10089000426822F480624260704721B1426842F4AB
:1008A0008052426003E0426822F480524260704706
:1008B0000A460021816821F4E041114381607047BC
:1008C00021B1826842F40042826003E0826822F42F
:1008D00000428260704721B1826842F40212826055
:1008E00003E0826822F40212826070470146002011
:1008F0008A6802F400120AB1012000E0002070476B
:10090000F0B504461546002000220026092911DD15
:10091000E068A1F10A0707EB470C072707FA0CF27A
:100920009043A1F10A0707EB470703FA07F21043C8
:10093000E0600CE0206901EB410C072707FA0CF29C
:10094000904301EB410703FA07F210432061A06BCB
:10095000C0F30156EF1C06F1010CA7EB0C0707EBE7
:10096000870C1F2707FA0CF29043EF1C06F1010CCD
:10097000A7EB0C0707EB870701FA07F21043A06308
:10098000F0BD10B50A4600210023816B21F440110F
:10099000531E41EA0351816310BD08B50023009343
:1009A0000090009B0B440093009B1A6008BD08B5A3
:1009B000024600200090009201F12800009B18449C
:1009C00000900098006880B208BD0A460021416886
:1009D000164B194011434160704741628262704773
:1009E0000A460021416821F01F0111434160704710
:1009F00040B109490831096841F40001064A08324A
:100A0000116007E004490831096821F40001024A35
:100A100008321160704700000024014000280140A6
:100A2000003C0140FFFEF0FFFDF7F1FFFFFD3FFF3F
:100A30000246002013680B400BB1012000E00020AB
:100A40007047CA430260704770B502460020002319
:100A500000240B125568CEB205EA060415681D4045
:100A600015B10CB1012000E0002070BD00220A1277
:100A7000D343036070470000002044490860091D0B
:100A80000860091D0860091D086041483F4914318C
:100A90000860704700213D498279002A3AD00A4611
:100AA000126803689A430B461A600A1D12680368AD
:100AB0009A430B1D1A60027911440A6803681A43AD
:100AC0000A60324A0832126803689A432F4B08338F
:100AD0001A601A1D126803689A432C4B0C331A6073
:100AE0004279102A0ED11A1F126803681A43274B45
:100AF00008331A601A1D126803681A43234B0C331B
:100B00001A600DE02149427911440A6803681A43CA
:100B10000A6005E0027911440A6803689A430A6092
:100B200070470021016001710C2141710021817128
:100B300070471649103109680143144A1032116098
:100B4000704701460020114A143212680A400AB167
:100B5000012000E0002070470C4914310860704704
:100B6000014600200022094B1B6803EA0102074BE3
:100B700014331B680B4013B10AB1012000E00020C0
:100B800070470249143108607047000000040140BA
:100B9000FFFF0F0010B50446CC48844208D1012164
:100BA000042000F0EBFD0021042000F0E7FD46E00A
:100BB000C748844208D10121082000F0DFFD002150
:100BC000082000F0DBFD3AE0C248844208D1012150
:100BD000102000F0D3FD0021102000F0CFFD2EE00A
:100BE000BD48844208D10121202000F0C7FD00212A
:100BF000202000F0C3FD22E0B848844208D1012142
:100C0000402000F0BBFD0021402000F0B7FD16E0C1
:100C1000B348844208D10121802000F0AFFD0021BB
:100C2000802000F0ABFD0AE0AE48844207D10121EC
:100C3000801500F0A3FD0021A01500F09FFD10BD60
:100C400010B50121084600F099FD0021012000F0B7
:100C500095FD10BD2DE9F04102460025002600203B
:100C600000230024002791F803C00CF00F0591F831
:100C700003C00CF0100CBCF1000F03D091F802C0BF
:100C80004CEA050591F800C0BCF1000F31D01468A2
:100C900000202BE04FF0010C0CFA00F3B1F800C07B
:100CA0000CEA03069E4220D183004FF00F0C0CFA91
:100CB00003F7BC4305FA03FC4CEA040491F803C0B3
:100CC000BCF1280F06D14FF0010C0CFA00FCC2F861
:100CD00014C00AE091F803C0BCF1480F05D14FF0F1
:100CE000010C0CFA00FCC2F810C0401C0828D1D33B
:100CF0001460B1F800C0BCF1FF0F34DD546800206F
:100D00002EE000F1080C4FF0010808FA0CF3B1F8DE
:100D100000C00CEA03069E4221D183004FF00F0C65
:100D20000CFA03F7BC4305FA03FC4CEA040491F8FF
:100D300003C0BCF1280F05D100F1080C08FA0CF82B
:100D4000C2F8148091F803C0BCF1480F07D100F13C
:100D5000080C4FF0010808FA0CF8C2F81080401C8B
:100D60000828CED35460BDE8F0814FF6FF710180B2
:100D7000022181700421C1707047024600209368EF
:100D80000B400BB1012000E000207047014688684D
:100D900080B2704702460020D3680B400BB101209F
:100DA00000E0002070470146C86880B270470161CA
:100DB0007047416170470AB1016100E041617047CD
:100DC000C16070474FF480320A4382618161826161
:100DD00082698269704702460020434B18684FF6CB
:100DE0008073184040EA021008433F4B1860704778
:100DF0003E49C8617047F0B50A460023002400212F
:100E0000002500F00046B6F1004F02D1364EF169E0
:100E100001E0354E7168C0F3034583B200F440161B
:100E2000B6F5401F08D121F070612F4E766826F08C
:100E300070662D4F7E6012E000F48016B6F5801FBC
:100E400006D1032606FA05F4A14341F0706106E0DD
:100E5000460D360103FA06F6B14341F0706122B146
:100E6000460D360103FA06F6314300F00046B6F1AE
:100E7000004F02D11C4EF16101E01B4E7160F0BDCC
:100E800030B500228B071C0F0F2303FA04F2164B18
:100E900008338C1053F824309343134C08348D10CE
:100EA00044F8253023468C1053F824308C07240F47
:100EB00000FA04F423430C4C08348D1044F8253018
:100EC00030BD0A49DC31086070470000000801406D
:100ED000000C0140001001400014014000180140C6
:100EE000001C0140002001400000014000002042A1
:100EF00010B50446F748844209D10121480500F0A5
:100F00004AFC00214FF4001000F045FC08E00121EC
:100F1000880500F040FC00214FF4800000F03BFC0D
:100F200010BD2DE9F04385B004460D460026B146BC
:100F30000427DFF8A483A6884FF6C07006406846F1
:100F400000F014FBDDF80880E448B8FBF0F01FFA6D
:100F500080F946EA0906A68020884FF6FE7108400F
:100F600020800026DE49286888420CD82868400086
:100F7000B8FBF0F087B2042F00DA04273E4309F1F2
:100F80000100208427E0E8884BF6FF71884206D1F3
:100F9000286800EB4000B8FBF0F087B209E0286851
:100FA00000EBC00101EB0010B8FBF0F087B247F492
:100FB0008047C7F30B0008B947F0010747F400402A
:100FC00006434FF4967009FB00F04FF47A7190FBE2
:100FD000F1F0401C2084A683208840F0010020808E
:100FE00026884FF6F5300640A888698908430643ED
:100FF0002680A88929890843208105B0BDE8F083AF
:1010000041F288310160002181804BF6FF71C1807F
:101010000021018141814FF480418181704721B1DC
:10102000028842F00102028004E002884FF6FE735B
:101030001A400280704721B1828842F400628280A7
:1010400004E082884FF2FF731A408280704721B11A
:10105000828842F48052828004E082884EF6FF73D8
:101060001A408280704721B1028842F48072028067
:1010700004E002884FF6FF631A400280704721B1F6
:10108000028842F40072028004E002884FF6FF53A7
:101090001A400280704721B1028842F480620280C7
:1010A00004E002884FF6FF331A40028070470A4678
:1010B000002181894FF60173194002F0FE031943A4
:1010C0008181704721B1828942F00102828104E06E
:1010D00082894FF6FE731A408281704721B10288DF
:1010E00042F04002028004E002884FF6BF731A40CB
:1010F000028070471AB183880B43838002E08388A3
:101100008B4383807047018270470146088AC0B2D2
:10111000704712B141F0010102E04FF6FE73194031
:101120000182704708B502460020009000920098A6
:10113000084400900098008808BD21B1028842F45C
:101140000042028003E00288C2F30E020280704770
:10115000B1F5006F04D1028842F40062028004E01D
:1011600002884FF2FF731A4002807047B1F5005FAA
:1011700004D1028842F40052028004E002884DF655
:10118000FF731A400280704721B1028842F48052F6
:10119000028004E002884EF6FF731A400280704716
:1011A000B1F5006F04D1028842F40062028004E0CD
:1011B00002884FF2FF731A400280704721B1028803
:1011C00042F02002028004E002884FF6DF731A40EA
:1011D000028070470146088B0012704721B10288D7
:1011E00042F01002028004E002884FF6EF731A40CA
:1011F0000280704721B9028842F08002028004E038
:1012000002884FF67F731A4002807047B1F5804F15
:1012100005D0828B4BF6FF731A40828303E0828BEA
:1012200042F480428283704770B502460024002554
:1012300000230020958A138B1B0445EA030626F041
:101240007F4404EA01068E4201D1012000E0002023
:1012500070BD10B501460020002300228B8A0A8B46
:10126000120443EA020424F07F4010BD0CB502468C
:10127000002000230193009300920B0F019321F0B3
:101280007F41019B1BB1009B1433009303E0090CC9
:10129000009B18330093009B1B680B400BB101208F
:1012A00000E000200CBD002221F07F42D343838266
:1012B000704730B5024600200023948801F0E065B5
:1012C00004EA154321F07F41948A0C4054B14BB19C
:1012D000012008E00054004000127A0040420F0054
:1012E000A0860100002030BD002221F07F42D343C0
:1012F00083827047FB48006840F00100F9490860AC
:1013000008464068F8490840F649486008460068C1
:10131000F6490840F34908600846006820F4802038
:1013200008600846406820F4FE00486008460068EF
:1013300020F0A05008604FF47F0088600020C86251
:101340007047E849096821F48031E64A1160114686
:10135000096821F480211160B0F5803F03D0B0F519
:10136000802F0ED106E0DF49096841F48031DD4A63
:10137000116007E0DB49096841F4A021D94A1160F6
:1013800000E000BF00BF704710B5014600220023F7
:1013900000204A11012A02D1D24C236806E0022A19
:1013A00002D1D04C236A01E0CE4C636A01F01F02E7
:1013B000012494401C400CB1012000E0002010BD2D
:1013C00038B5002000900024002500BF3120FFF731
:1013D000DBFF05460098401C00900098B0F5A06F18
:1013E00001D0002DF2D03120FFF7CEFF08B101244B
:1013F00000E00024204638BD01460020B94A1068AC
:1014000020F0F80040EAC10010607047B849086059
:10141000704702460020B34B586820F4741042EA2B
:1014200001031843AF4B58607047B14908667047D5
:1014300002460020AB4BD86AAE4B184042EA01038B
:101440001843A84BD862704701460020A54AD06ACD
:1014500020F0F0000843D062704701460020A14A06
:10146000D06A20F470600843D0627047A049886653
:101470007047014600209B4AD06A20F47040084320
:10148000D06270479A490867704701460020954A24
:10149000506820F00300084350607047914840684E
:1014A00000F00C007047014600208E4A506820F082
:1014B000F00008435060704701460020894A506898
:1014C00020F4E06008435060704701460020854AE0
:1014D000506820F4605040EAC1005060704729B164
:1014E000804A527A02437F4B5A7204E07D4A527A14
:1014F00082437C4B5A7270477D49D83108607047EF
:1015000001460020774A506820F44040084350606C
:1015100070477949086070477749091D086070472E
:101520000021704A203211706E4A82F82010012882
:1015300002D004280AD104E001216A4A2032117045
:1015400005E00521674A2032117000E000BF00BFAE
:1015500070476A49086070476249096A0143614AF5
:101560001162704765494439086070472DE9F041C0
:1015700000210022002500230026002400278C469D
:10158000DFF86081D8F8048008F00C0121B104294B
:1015900007D0082959D109E0DFF86481C0F800803C
:1015A00058E0DFF86081C0F8008053E0DFF8348154
:1015B000D8F8048008F47012DFF82881D8F8048085
:1015C00008F48035920C0D2A01D0921C00E006220E
:1015D00035B9DFF8348102FB08F8C0F8008033E049
:1015E000DFF80081D8F82C8008F48036DFF8F4802A
:1015F000D8F82C8008F00F0808F1010446B9DFF88C
:101600000481B8FBF4F808FB02F8C0F800801BE086
:10161000DFF8D080D8F82C80C8F3031808F1010750
:10162000DFF8C080D8F82C80C8F3032808F1020C3A
:10163000DFF8D080B8FBF7F808FB0CF8B8FBF4F83B
:1016400008FB02F8C0F8008004E0DFF8B480C0F8BE
:10165000008000BF00BFDFF88C80D8F8048008F05D
:10166000F0010909DFF8A48018F80130D0F80080F3
:1016700028FA03F8C0F80480DFF86880D8F80480FE
:1016800008F4E061090ADFF8848018F80130D0F826
:10169000048028FA03F8C0F80880DFF84880D8F8FA
:1016A000048008F46051C90ADFF8608018F801303E
:1016B000D0F8048028FA03F8C0F80C80DFF8248002
:1016C000D8F8048008F44041890BDFF8448018F80A
:1016D0000130D0F80C80B8FBF3F8C0F81080BDE8FA
:1016E000F0810000001002400000FFF0FFFFF6FE56
:1016F00000004242F0FFFEFFC40542428004424225
:1017000000127A0040787D0100093D00340100207C
:101710004401002029B1354A52690243334B5A61D2
:1017200004E0324A52698243304B5A61704729B112
:101730002E4A926902432D4B9A6104E02B4A92692A
:1017400082432A4B9A61704729B1284AD2690243E1
:10175000264BDA6104E0254AD2698243234BDA61E1
:10176000704729B1214A926A0243204B9A6204E0F1
:101770001E4A926A82431D4B9A62704729B11B4AE6
:10178000D2680243194BDA6004E0184AD2688243F7
:10179000164BDA60704729B1144A12690243134BA1
:1017A0001A6104E0114A12698243104B1A617047B2
:1017B0000F49086070470F49C86470470B49C871EA
:1017C00070470A48406A40F0807008494862704794
:1017D00001460020054A92680A400AB1012000E053
:1017E00000207047014988727047000000100240D5
:1017F000400442420000424210B50446CE488442B2
:1018000008D101218014FFF7B9FF0021A014FFF7D0
:10181000B5FF16E0C948844208D101210014FFF742
:10182000BAFF00212014FFF7B6FF0AE0C448844243
:1018300007D10121C013FFF7AEFF0021E013FFF72E
:10184000AAFF10BD10B50022028802F441520B8895
:101850004C8823438C882343CC8823430C8923431F
:101860004C8923438C892343CC8923431A43028028
:10187000838B4FF2FF74234083830B8A038210BD56
:101880002DE9F04F85B006460C464FF0000A0227BE
:101890004FF000084FF0010B0025A946B08B4FF226
:1018A00040010840B08302203084B6F81CA0A06834
:1018B000022801D100BF59E0A08810B94FF0010BF8
:1018C00001E04FF0020B9D48864202D14FF40035F3
:1018D00001E04FF480259B48C06A2840C8B1994870
:1018E000C06AC0F30335052D03D90F2D01D2AD1CFD
:1018F00002E00F2D00D114259248C06AC0F30310F6
:1019000000F101099048B0FBF9F068434FEA400943
:1019100004E06846FFF72AFEDDF80090E088B0F5A5
:10192000007F0AD14FEA192000EB80004000A16837
:10193000B0FBF1F0401D85B20BE04FEA4B10B9FB54
:10194000F0F000EB80004000A168B0FBF1F0401D1A
:1019500085B20A20B5FBF0F505F00108A5EB0800FB
:10196000C0F34F074FF6FF7000EA0828022F01DB93
:10197000FF2F02DD02274FF00008E08840EA080050
:1019800038433084A088A1890843618808432188AE
:10199000084340F4006040EA0A0AA6F81CA005B01B
:1019A000BDE8F08F0021018041808180C1800181EC
:1019B00041818181C181072101827047002101801D
:1019C00041808180C1800221816000218181704736
:1019D00021B1028842F04002028004E002884FF602
:1019E000BF731A400280704721B1828B42F480623B
:1019F000828304E0828B4FF6FF331A408283704764
:101A000030B5002400230C110125A540ABB21AB15A
:101A100085881D43858002E085889D43858030BD93
:101A20001AB183880B43838002E083888B438380D1
:101A30007047818170470146888970474FF6FF6281
:101A4000914204D0028842F48072028004E002884D
:101A50004FF6FF631A400280704721B1828842F03E
:101A60000402828004E082884FF6FB731A40828071
:101A7000704702884FF2FF731A40028002880A43BF
:101A800002807047018841F480510180704721B184
:101A9000028842F40052028004E002884DF6FF738F
:101AA0001A400280704702460020012901D0108BA5
:101AB00000E0908A70470146088A7047B1F5804F70
:101AC00004D1028842F48042028004E002884BF68E
:101AD000FF731A40028070470246002013890B40B2
:101AE0000BB1012000E000207047CA43028170471B
:101AF000F0B50246002000240023002501F00F0766
:101B00000126BE40B4B20B1101269E40B3B29688A6
:101B100006EA03051689264016B10DB1012000E042
:101B20000020F0BD10B5002201F00F040123A340F6
:101B30009AB2D343038110BD003001400038004009
:101B4000003C00400010024040787D0110B5044682
:101B5000FB48844209D101218803FFF70FFE0021D1
:101B60004FF48040FFF70AFE32E0F648844209D184
:101B700001214804FFF70FFE00214FF40030FFF76A
:101B80000AFE25E0F048844209D101218804FFF7CC
:101B900002FE00214FF48020FFF7FDFD18E0EB4826
:101BA000844209D10121C804FFF7F5FD00214FF45B
:101BB0000020FFF7F0FD0BE0E548844208D1012149
:101BC0000805FFF7E8FD00214FF48010FFF7E3FD63
:101BD00010BD2DE9F04786B005460E460024A2460A
:101BE00000BFA1460027B08900B100BF2F462C8A54
:101BF0004CF6FF700440F08804432C82AC894EF60A
:101C0000F3100440B08831890843718908430443C4
:101C1000AC81AC8A4FF6FF400440B0890443AC82EB
:101C200001A8FFF7A3FCC648874202D1DDF810A047
:101C300001E0DDF80CA0A88900F4004040B10AEBF7
:101C4000CA0000EB0A1031684900B0FBF1F807E068
:101C50000AEBCA0000EB0A1031688900B0FBF1F80A
:101C60006420B8FBF0F004012009642101FB108915
:101C7000A88900F4004040B1322000EBC900B0FB5D
:101C8000F1F000F00700044308E0322000EB0910F7
:101C90006421B0FBF1F000F00F0004432C8106B08A
:101CA000BDE8F0874FF41651016000218180C180AA
:101CB00001810C21418100218181704710B50246CC
:101CC0000020108A4FF2FF0318400B884C882343F2
:101CD0008C882343CC8823431843108210BD0021F5
:101CE000018041808180C180704721B1828942F4A6
:101CF0000052828104E082894DF6FF731A4082818E
:101D00007047F0B50346002400260025002040F669
:101D10006A17B94200D100BF1846C1F3421401F05E
:101D20001F06012707FA06F5012C01D10C3004E04B
:101D3000022C01D1103000E014301AB107682F4393
:101D4000076002E00768AF430760F0BD1AB1838AFD
:101D50000B43838202E0838A8B4383827047028A2B
:101D60004FF6F0731A400282028A0A4302827047D9
:101D700082894FF2FF731A40828182890A438281ED
:101D8000704721B1828942F00202828104E0828997
:101D90004FF6FD731A4082817047028A4FF6DF7357
:101DA0001A400282028A0A430282704721B1028AE3
:101DB00042F48042028204E0028A4BF6FF731A402A
:101DC00002827047C1F3080282807047014688880A
:101DD000C0F308007047818941F00101818170479B
:101DE000028BD2B20283028B42EA01220283704745
:101DF000028B02F47F420283028B0A430283704704
:101E000021B1828A42F02002828204E0828A4FF667
:101E1000DF731A408282704721B1828A42F0100239
:101E2000828204E0828A4FF6EF731A408282704702
:101E300021B1828A42F00802828204E0828A4FF64F
:101E4000F7731A408282704721B1828942F40042BE
:101E5000828103E08289C2F30E028281704721B140
:101E6000828A42F40062828204E0828A4FF2FF7327
:101E70001A4082827047828A4FF6FB731A40828230
:101E8000828A0A438282704721B1828A42F002022A
:101E9000828204E0828A4FF6FD731A408282704784
:101EA00002460020B1F5007F00D100BF13880B402F
:101EB0000BB1012000E00020704701F40072B2F580
:101EC000007F00D100BFCA430280704770B5024650
:101ED000002400230025002040F66A16B14200D1FC
:101EE00000BFC1F3421501F01F03012606FA03F3F8
:101EF000012D02D19689334006E0022D02D1168AC7
:101F0000334001E0968A33400C12012606FA04F4AD
:101F10001688344013B10CB1012000E0002070BDE0
:101F200010B50022002340F66A14A14200D100BF80
:101F30000A1201249440A3B2DC43048010BD0000C7
:101F4000003801400044004000480040004C004080
:101F50000050004010B501214FF4CE70FFF7E7FBB1
:101F600001210320FFF7F0FB8148806940F0010068
:101F70007F49886110BD08B54FF44040ADF80000BE
:101F800003208DF8020010208DF80300694679487F
:101F9000FEF760FE08BD08B50F20ADF80000032075
:101FA0008DF8020048208DF8030069467248FEF75C
:101FB00051FE08BD1CB57148C06840F4C0616F484F
:101FC000C16000208DF804000C208DF80500012070
:101FD0008DF80600402000906846FEF75BFD172054
:101FE000012181404209920002F1E022C2F8001171
:101FF00000BF1CBD08B50F20ADF8000018208DF8FB
:10200000030003208DF8020069465D48FEF722FEBA
:102010004FF08040008C40F480504FF080410884A5
:102020000846808B40F4C04088830846008C40F40A
:10203000807008840846808B40F0600088830846E2
:10204000008C40F0100008840846008B40F4C0402B
:1020500008830846008C40F0010008840846008B85
:1020600040F06000088340F25F100885881488857E
:102070008004008840F00100088008BD08B5C02039
:10208000ADF8000018208DF8030003208DF8020041
:1020900069463B48FEF7DEFD0320ADF8000018203E
:1020A0008DF8030003208DF8020069463148FEF7E1
:1020B000D1FD3448008840F4805032490880081F20
:1020C000008840F4C040091F0880081D008840F4C3
:1020D0008070091D0880081F008840F06000091FFB
:1020E0000880081D008840F01000091D0880254860
:1020F0000838008840F4C040224908390880214847
:10210000008840F001001F4908801E4808380088F8
:1021100040F060001B490839088040F25F101949FF
:10212000083108808814091D088016482038008866
:1021300040F0010013492039088008BD08B580200F
:10214000ADF8000000208DF8030003208DF8020098
:1021500069460B48FEF77EFD08BD10B5FFF7FAFE95
:10216000FFF748FFFFF78AFFFFF705FF10BD0000EC
:1021700000100240000C014000100140000001402E
:1021800000080140200400402DE9FE4F07460C46A0
:1021900015461E46DFF898804FF080494046029071
:1021A00024480190384609F009FB4146009009F0A7
:1021B0001DFB8346204909F07FFA824609F0DEFACA
:1021C0001E490880204609F0F9FA4946009009F0B6
:1021D0000DFB83461A4909F06FFA824609F0CEFAE0
:1021E0001649091D0880284609F0E8FA009002996E
:1021F00009F0FCFA8346134909F05EFA824609F0B9
:10220000BDFA0E4908310880304609F0D7FA00902F
:10221000019909F0EBFA8346074909F04DFA824625
:1022200009F0ACFA05490C310880BDE8FE8F704713
:10223000CDCC0C406666864000007A4334040040F2
:1022400000000C430000664310B501218803FFF72E
:1022500088FA00214FF48040FFF783FA10BD01B5E2
:1022600081B0002000900198009002E00098401E8C
:10227000009000980028F9D10CBD38B503460C46F3
:10228000002100200090F948016901F01C014FF481
:10229000784000EAC32001434FF4F86000EA84105C
:1022A000014341F0020141F00101F0484261016146
:1022B00000BF0098401C0090EC48016901F001004B
:1022C00018B1EB4D0098A842F3D3E94D0098A8420D
:1022D00001D1002038BD0120FCE718B502460B46AD
:1022E000002100200090E148016901F01C014FF439
:1022F000784000EAC22001434FF4F86000EA8310FE
:10230000014321F0020141F00101D848016100BF01
:102310000098401C0090D548016901F0010018B1F7
:10232000D34C0098A042F3D3D14C0098A04201D1E5
:10233000002018BDCD48406980B2FAE72DE9F04190
:1023400088B004460F464FF0000800250020079093
:10235000C84E0190C548056925F01C0502A8FFF785
:1023600005F9039EC448864205D3C448864202D27A
:1023700045F0080509E0C148864205D3BD488642BC
:1023800002D245F00C0500E000BFB84805614FF4EB
:10239000004200213846FFF770FF18B9002008B04E
:1023A000BDE8F081B648FFF75AFF206800284ED0FC
:1023B00000BF0198401C019001213846FFF78DFFB6
:1023C00000F0040018B9AA4901988842F1D3A8493D
:1023D0000198884201D10020E1E7002001904FF4EC
:1023E000805200213846FFF748FF08B90020D6E7A1
:1023F00000BF0198401C019001213846FFF76DFF96
:1024000000F0200018B99A4901988842F1D3984900
:102410000198884201D10020C1E7002001901021DD
:102420003846FFF75AFF804608F0040018B14FF411
:102430000060206201E00020206208F0020010B17C
:102440000020606116E04FF48040606112E0206A75
:10245000C0F3CF006169C1F34F0140EA01020021DE
:102460003846FFF70AFF08B9002098E76FF07F4071
:10247000FFF7F5FE7D48056882480540D4E9010173
:102480000843E16808432169084361690843A16979
:102490000843E1690843216A0843616A0843A16A65
:1024A0000843E16A0843216B0843616B0843054315
:1024B0006E480560D4E90E010843216C0843616C45
:1024C0000843A16C0843E16C0843216D0843616D2A
:1024D000084366494860A06D8860E06DC8600846A2
:1024E00085694FF641700540B4F86010606E40EAAF
:1024F0000140A16E0843E16E0843216F0843616FFC
:102500000843054359488561D4E91E0108435749EA
:10251000C8615D4885695D480540D4E920010843EC
:10252000D4F888100843D4F88C100843D4F89010DD
:102530000843D4F894100843D4F898100843D4F80A
:102540009C100843D4F8A010084305434E48856109
:10255000D4E929010843D4F8AC100843D4F8B010EA
:102560000843D4F8B41040EA8100D4F8B810084306
:1025700040F4000044490860012010E70021016098
:1025800041608160C160016141618161C16101623D
:1025900041628162C162016341638163C163402121
:1025A00001642021416400218164C16401654165A9
:1025B0008165C16501668021416600218166C16631
:1025C000016741678167C1674FF08061C0F8801083
:1025D0004910C0F884104910C0F88810C910C0F81C
:1025E0008C100021C0F89010C0F89410C0F898101A
:1025F000C0F89C10C0F8A0104FF00071C0F8A410F3
:102600000021C0F8A8104FF40031C0F8AC104912F6
:10261000C0F8B0100021C0F8B410C0F8B81070476E
:1026200030B11949896941F00201174A916105E009
:102630001549896921F00201134A9161704730B14F
:102640001149896941F400510F4A916105E00E4931
:10265000896921F400510C4A91617047C0B1034966
:10266000096841F00401014A116017E0008002404E
:10267000FFFF040000879303002D3101C00E1602F6
:10268000FFFF0F000F8120FF00900240233FDEF884
:10269000F749096821F00401F54A11607047F548CF
:1026A000806940F48010F3498861704730B1F04987
:1026B000096841F00801EE4A116005E0EC4909683B
:1026C00021F00801EA4A1160704700B50120FFF7C8
:1026D000EDFFFFF7E4FF0120FFF7C0FF0120FFF748
:1026E000AEFF0120FFF79CFF00BD10B503460A4670
:1026F0000021E1480068006800F0004008B10020B7
:1027000010BD002105E0585CDB4C2468A4686054CF
:10271000491C9142F7D3C2F30C00D74C2468606087
:10272000D5480068006840F04050D34C24682060D1
:10273000D1480068006840F00040CF4C2468206019
:10274000CC48406900F0040020B10420C94C60610D
:1027500000206060C8480068006800F4801028B15C
:10276000C5480068C068C44C206014E0C2480068D6
:10277000006800F4001020B1BE480069BE4C206023
:1027800009E0BC480068C0F38404BB48006810300E
:102790002044B94C20600120B2E710B50246002168
:1027A0000023B6480068006800F0004008B100202F
:1027B00010BDB2480068008800F40040E0B9AF489E
:1027C0000068008800F48070B0B1AC4800680088F0
:1027D00000F4007080B1A94800680068C0F30D40A3
:1027E000031F002105E0A54800688068405C505444
:1027F000491C9942F7D300E000234FF000409F4C62
:10280000246820609B48406900F0800020B180204F
:10281000984C60610020A06098480068808800F4AF
:10282000804028B195480068C068944C206014E04E
:1028300092480068808800F4004020B18D48C0684C
:102840008E4C206009E08B480068C0F384048B48FC
:10285000006810302044894C20601846A8E70146E3
:102860000868C0F30D40704700B500228348006837
:10287000006800F00040B0B980480068008800F4AB
:10288000004080B97D480068008800F4807050B135
:102890007A480068008800F4007020B1774800682A
:1028A000FFF7DDFF0246104600BD4FF000407349C0
:1028B0000968086071480068808800F4804028B189
:1028C0006E480068C0686D49086014E06B48006895
:1028D000808800F4004020B16648C06867490860FD
:1028E00009E064480068C0F384016448006810305F
:1028F000084462490860704770B506460D460024DA
:1029000000213046FFF7E9FC044615B144F4804449
:1029100002E04BF6FF700440224600213046FFF7EC
:10292000ACFC08B1012070BD0020FCE7002050493C
:10293000896901F0010109B1012000E00020704720
:102940004B48806940F0010049498861704730B1C7
:102950004749896941F00101454A916105E04449CF
:10296000896921F00101424A9161704701460020C6
:102970003F4A926B0A400AB1012000E000207047F4
:10298000014600203A4A926B0A400AB1012000E059
:102990000020704729B1364AD26B8243344BDA6348
:1029A00004E0334AD26B0243314BDA63704710B50F
:1029B0000B794C7943EA04222D4B03441A64CB78FB
:1029C0001B068C7843EA04434C7843EA04230C78D2
:1029D00043EA0402264B03445A6410BD0246244BCA
:1029E0001344186C030A4B710871214B1344586C43
:1029F000030ECB70030C8B70030A4B70087070478A
:102A000041B11B4A0244126C42F00042184B03448D
:102A10001A6407E0164A0244126C22F00042144B7A
:102A200003441A647047082908D0114A0244126C02
:102A300042F080420E4B03441A6407E00C4A024401
:102A4000126C22F080420A4B03441A647047084A11
:102A50000244126C22F07C52054B03441A64044A6F
:102A60000244126C0A43024B03441A64704700008C
:102A70000080024000900240480100204C010020EC
:102A800030B50C4613460021F64D286000BF15E016
:102A900000EB01124FF480151560C1EB411505EBF9
:102AA000811504EB051595605D1E8D4204D900EB80
:102AB00001151035D56000E0D060491C9942E7D37C
:102AC000E94D286130BD70B504460D460020E54E45
:102AD000346000BF16E004EB0011C0EB401606EBBB
:102AE000801605EB06168E60C0EB401606EB8016CE
:102AF00002EB0616CE605E1E864202D14FF400162F
:102B00000E60401C9842E6D3D74E346170BD024639
:102B1000002013680B400BB1012000E0002070473B
:102B200001460878C0F3C3007047016841F00041D6
:102B30000160704721B1026842F08042026003E008
:102B4000026822F080420260704702680A43026015
:102B5000704702680A430260704721B1026822F0A0
:102B60000062026003E0026842F0006202607047A7
:102B700021B1026842F40012026003E0026822F40C
:102B800000120260704721B1026842F480120260B4
:102B900003E0026822F480120260704721B10268EB
:102BA00022F08062026003E0026842F0806202600C
:102BB000704721B1026842F00072026003E00268CF
:102BC00022F000720260704710B541EA0244436887
:102BD0002343436010BD30B50C4613460021A34D7E
:102BE000286000BF18E000EB01124FF000451560AF
:102BF00044F2F0555560C1EB411505EB811504EB2E
:102C0000051595605D1E8D4204D900EB0115103548
:102C1000D56000E0D060491C9942E4D3924DE86051
:102C200030BD70B504460D460021904E346000BFA3
:102C30001DE004EB01104FF0004606604FF4BE6645
:102C40004660C1EB411606EB811605EB0616866061
:102C5000C1EB411606EB811602EB0616C6605E1E3E
:102C60008E4203D1466846F400464660491C9942AC
:102C7000DFD37D4EF46070BD0246002013680B4028
:102C80000BB1012000E000207047016841F00041D5
:102C90000160704721B1426822F00042426003E0C7
:102CA000426842F000424260704721B1426842F4FB
:102CB0000042426003E0426822F4004242607047F2
:102CC00021B1426842F48042426003E0426822F44B
:102CD000804242607047024619B15068C0F30C4010
:102CE00070479088C0F30C00FAE75F48006840F036
:102CF00001005D490860704700205B49096801F0E8
:102D0000010109B1012000E00020704701460020C8
:102D1000554A52690A400AB1012000E0002070477C
:102D2000514948617047014600204F4A52690A40A4
:102D30000AB1012000E0002070474B49486170470C
:102D40004948406900F0010070474748406900F079
:102D50004000704700204449896901F4801109B19D
:102D6000012000E00020704729B13F4AD2690243A8
:102D70003D4BDA6104E03C4AD26982433A4BDA6166
:102D8000704701460020384A126A0A400AB1012001
:102D900000E0002070473448006AC0F34A407047A2
:102DA0003148006A80B270472F48806C70472E48C7
:102DB000C06C70472C48006D70472B48406D7047C1
:102DC00000202949486070470020274988607047E3
:102DD0002748C06A40F000402549C8627047014654
:102DE000002000BF04E051F82020214B9A62401CD3
:102DF0000828F8D3704730B11D49C96A41F4007101
:102E00001B4AD16205E01A49C96A21F40071184AC7
:102E1000D162704701460020154AD26A0A400AB1C1
:102E2000012000E00020704730B11149C96A41F02B
:102E300004010F4AD16205E00D49C96A21F004017D
:102E40000B4AD162704730B10949C96A41F00201A9
:102E5000074AD16205E00649C96A21F00201044A25
:102E6000D162704748010020009002404C010020D0
:102E70000080024030B1F849C96A41F00101F64AC8
:102E8000D16205E0F449C96A21F00101F24AD16238
:102E9000704738B1F149096841F00801EE4AC2F8BB
:102EA000001106E0ED49096821F00801EA4AC2F87C
:102EB0000011704738B1E949096841F00401E64A58
:102EC000C2F8001106E0E549096821F00401E24A70
:102ED000C2F80011704738B1E049096821F00201D9
:102EE000DD4AC2F8001106E0DC49096841F0020140
:102EF000D94AC2F800117047D848006840F0010074
:102F0000D549C1F80001704700F0805292B120F01D
:102F1000805039B1D14A0C3212688243CE4BC3F88B
:102F20000C2117E0CD4A0C3212680243CA4BC3F899
:102F30000C210FE039B1C94A103212688243C64BE6
:102F4000C3F8102106E0C54A103212680243C24B92
:102F5000C3F8102170470146002001F080526AB189
:102F6000BE4A121D12680A4032B1BC4A0C321268C5
:102F70000A400AB101200EE000200CE0B74A0832F6
:102F800012680A4032B1B54A0C3212680A400AB1DE
:102F9000012000E0002070470146AF480858704704
:102FA000AF48006840F02000AD4908607047AC4869
:102FB000006840F01000AA4908607047A8480068FF
:102FC00040F00800A64908607047A548006840F036
:102FD0000400A3490860704730B1A149096841F075
:102FE00002019F4A116005E09D49096821F0020134
:102FF0009B4A1160704730B19949096841F001015D
:10300000974A116005E09649096821F00101944A48
:103010001160704701460020914A12680A400AB1C7
:10302000012000E0002070478D49091D08607047AD
:1030300010B58B4B1033196040EA0203884C1434EE
:10304000236010BD8649183108607047844A1C32DD
:103050001060121D1160704701467F480858704784
:10306000F0B504460D4600207E4E34607E4E35603D
:1030700000BF1DE004EB00114FF004760E60C0EBC2
:10308000401606EB801602EB06168E605E1E864228
:1030900004D904EB00161036CE6000E0CC6005EBDE
:1030A00000178E68BE6005EB0017CE68FE60401CFE
:1030B0009842DFD3461E05EB061635606B4E346131
:1030C000F0BDF0B504460D460020694E3460694EEF
:1030D000356000BF20E004EB00114FF000460E60A9
:1030E00044F2F0564E60C0EB401606EB801602EB41
:1030F00006168E605E1E864204D904EB001610365A
:10310000CE6000E0CC6005EB00178E68BE6005EB7A
:103110000017CE68FE60401C9842DCD3461E05EBCB
:1031200006163560514EF460F0BD70B505460B468D
:10313000002100244B480068006800F0004008B1FE
:10314000002070BD002105E0685C474E3668B66817
:103150007054491C9942F7D3C3F30C00414E3668B2
:10316000706040480068006840F040503D4E36684E
:1031700030603C480068006840F00040394E3668D6
:1031800030603A48406900F0040020B10420374E16
:1031900070610020706000BF641C324800680068E5
:1031A00000F4003018B94FF6FF708442F4D332486F
:1031B000844201D10020C4E72A480068006820F456
:1031C0000030284E3668306026480068806801C2AA
:1031D00024480068C068106022480068006800F455
:1031E0008010A0B120480068C0681E4E30601E48A4
:1031F0000068006828B11C48006800681A4E3060FA
:1032000028E0194800681030174E306022E0154859
:103210000068006800F4001040B114480069114EC5
:10322000306012480069104E306013E00F480068AB
:10323000C0F384060B48006810303044094E3060FB
:103240000A480068C0F3840607480068103030441C
:10325000054E3060012074E700800240008102408A
:1032600000870240480100205001002000900240E9
:103270004C01002054010020FFFF040030B503463C
:10328000002200243B480068006800F0004008B1BC
:10329000002030BD37480068008800F40040E0B9E5
:1032A00034480068008800F48070B0B1314800688C
:1032B000008800F4007080B12E4800680068C0F3F8
:1032C0000D40041F002205E02B4800688068805CE8
:1032D0009854521CA242F7D300E0002427484069CA
:1032E00000F0800020B18020244D68610020A8609B
:1032F00020480068806801C11E480068C0680860F6
:103300001C480068006840F000401A4D2D68286095
:1033100018480068808800F48040A0B11648006812
:10332000C068144D286014480068006828B112482D
:1033300000680068104D28601AE00F4800681030DF
:103340000D4D286014E00B480068808800F40040B0
:1033500020B10A48C068074D286009E007480068A6
:10336000C0F384050348006810302844014D2860EC
:1033700020468EE74C0100205401002000900240BE
:103380001FB50020ADF804004BF6FF70ADF8060045
:103390000020ADF808004FF48060ADF80A0000018D
:1033A000ADF80C00FE4800906946FE48FDF7B9FDF7
:1033B0001FBD2DE9F04104460E46154600270121A8
:1033C000F848FDF7BAFE0021F648FDF7B6FE40F6D4
:1033D000FF70F54908600121F248FDF720FEFFF774
:1033E000CFFF0121EF48FDF73EFE09E0EE480168FE
:1033F0000068401EEC4A106011B90220BDE8F0815F
:10340000EA49E848FDF710FF0028EFD000222146E6
:10341000E448FDF77EFE08E0E34801680068401ECE
:10342000E14A106009B90220E8E7E149DD48FDF70B
:10343000FBFE0028F0D03146DA48FDF764FE40F686
:10344000FF70D949086008E0D74801680068401E4D
:10345000D54A106009B90220D0E7D549891CD14866
:10346000FDF7E2FE0028EFD02946CE48FDF74BFEDF
:1034700008E0CD4801680068401ECB4A106009B9D9
:103480000220BBE7CA49891CC648FDF7CDFE0028CB
:10349000EFD00121C348FDF7F2FDF8B2AEE770B5F9
:1034A00004460E4600250021BE48FDF7B8FD012167
:1034B000BC48FDF742FE0021BA48FDF73EFEFFF78B
:1034C0005FFF0121B748FDF7CEFD40F6FF70B6491A
:1034D000086008E0B44801680068401EB24A106005
:1034E00009B9022070BDB149AE48FDF79DFE002824
:1034F000F0D00021AB48FDF7CEFD00222146A948BF
:10350000FDF707FE40F6FF70A749086008E0A648EF
:1035100001680068401EA44A106009B90220E1E772
:10352000A349A048FDF780FE0028F0D031469D4811
:10353000FDF7E9FD08E09C4801680068401E9A4AD2
:10354000106009B90220CDE79949891C9548FDF71B
:103550006BFE0028EFD001219248FDF784FD08E0C2
:10356000914801680068401E8F4A106009B9022026
:10357000B8E78E498B48FDF757FE0028F0D00122AE
:1035800021468848FDF7C5FD08E0874801680068C6
:10359000401E854A106009B90220A3E78349491CEF
:1035A0008048FDF741FE0028EFD008E07E48016822
:1035B0000068401E7C4A106009B9022092E77B49EE
:1035C0003F317848FDF730FE0028EFD001217548E3
:1035D000FDF755FD7348FDF798FD0546012171483B
:1035E000FDF759FD28467DE708B50020009004212D
:1035F0008820FFF754FF00909DF8000020F009009C
:1036000000909DF8002004218820FFF7D2FE0122BF
:1036100060218820FFF7CDFE032260218820FFF77C
:10362000C8FE002008BD2DE9F04180460C46154635
:103630000026002716214046FFF731FF06461521D8
:103640004046FFF72CFF0746A643A74305F00100BD
:1036500000B1264305F0020000B12743324616218F
:103660004046FFF7A6FE3A4615214046FFF7A1FE69
:103670000020BDE8F0812DE9F04107460C461646D2
:10368000002517213846FFF70AFF05460EB12543EE
:1036900000E0A5432A4617213846FFF78AFE00209E
:1036A000BDE8F0812DE9F04107460C46164600259D
:1036B00013213846FFF7F3FE05460EB1254300E01F
:1036C000A5432A4613213846FFF773FE0020BDE8C4
:1036D000F08170B504460D46002604F0010008B1E3
:1036E000822606E004F0050008B1882601E00320E8
:1036F00070BD2DB9224611213046FFF75AFE04E075
:10370000224610213046FFF754FE0020F0E72DE955
:10371000F04107460C461646002504213846FFF7BF
:10372000BEFE05460EB1A54300E025432A4604210E
:103730003846FFF73EFE0020BDE8F08101B581B0BC
:10374000002000901B4901984843009002E0009837
:10375000401E009000980028F9D10CBD10B500243F
:1037600004218220FFF79BFE044624F00304224636
:1037700004218220FFF71DFE0A218220FFF78FFE21
:10378000044644F0070422460A218220FFF711FE76
:10379000492220218220FFF70CFE02200CE00000CD
:1037A000801A060000540040600100200100030060
:1037B00082000700A0860100FFF7C0FF012221213F
:1037C0008220FFF7F6FD17218220FFF768FE0446EE
:1037D00024F01E04224617218220FFF7EAFD9A22D8
:1037E00041218220FFF7E5FD01224A218220FFF7D7
:1037F000E0FD01224B218220FFF7DBFD00224B215F
:103800008220FFF7D6FD012256218220FFF7D1FD4D
:10381000012258218220FFF7CCFD01224021822085
:10382000FFF7C7FDFF220B218220FFF7C2FD00201A
:10383000F849C88088804880088010BD10B50446CB
:10384000022203212046FFF7B4FD0220FFF776FF96
:10385000002203212046FFF7ACFD002010BD70B50B
:103860000546002400212846FFF719FE04464FF6BE
:10387000FF7000EA042401212846FFF710FE0443EC
:10388000204670BD10B504462046FFF7E8FF40F61D
:103890001101884206D0E048006808B9022010BD36
:1038A0000120FCE70020FAE708B501214805FDF7F3
:1038B0004BFF01210920FDF73AFF01214805FDF7E3
:1038C0006AFF00214FF40010FDF765FFC020ADF83E
:1038D000000001208DF802001C208DF803006946CD
:1038E000CE48FDF7B7F94FF48040ADF8000048200E
:1038F0008DF803006946C948FDF7ACF90E21012097
:10390000FDF7BEFA08BD10B5FFF7CEFF8220FFF726
:10391000B9FF08B1042010BD8820FFF7B3FF08B13C
:103920000520F8E78220FFF789FF8820FFF786FF50
:10393000012207218220FFF7EAFE012211468220A0
:10394000FFF7B0FE012211468220FFF794FE00210E
:103950000120FFF7BEFE00220C218820FFF7A2FE07
:1039600001220C218820FFF786FE03220C218820EB
:10397000FFF759FEFFF7F2FE01220D218820FFF725
:10398000C6FE012204218820FFF78CFE01220421BB
:103990008820FFF770FE00210420FFF79AFE002226
:1039A00001218820FFF77EFE012211468820FFF7C3
:1039B00062FE0022F8218820FFF774FE0122F82120
:1039C0008820FFF758FE0322F8218820FFF72BFEFE
:1039D000FFF70AFE00209EE71FB501210920FDF731
:1039E000A6FE4FF48040ADF80C0004208DF80F00C7
:1039F00003A98A48FDF72EF90E210120FDF740FAB0
:103A00004FF48040009000208DF8040010208DF8C5
:103A1000050001208DF806006846FDF73BF82820D8
:103A20008DF808000F208DF809008DF80A0001209C
:103A30008DF80B0002A8FCF78EFD1FBD2DE9F041AB
:103A400007460C46164600250A213846FFF727FD93
:103A500005460EB1254300E0A5432A460A21384613
:103A6000FFF7A7FC0020BDE8F08170B506460D46C3
:103A7000002409213046FFF712FD15B144F001047E
:103A800001E024F00104224609213046FFF791FCB1
:103A9000002070BD2DE9F04107460C461646002572
:103AA0000C213846FFF7FBFC05460EB1254300E02C
:103AB000A5432A460C213846FFF77BFC0020BDE8D1
:103AC000F08170B505460E46002409218220FFF7DB
:103AD000E6FC044624F0060445EA060004432246B8
:103AE00009218220FFF765FC09218820FFF7D7FC18
:103AF000044624F0060445EA060004432246092150
:103B00008820FFF756FC002070BD10B50446002148
:103B10000420FFF7D6FF04F00400D0B10121882073
:103B2000FFF7A3FF0122F8218820FFF7B3FF01224E
:103B300080218820FFF782FF0D218820FFF7AFFC4E
:103B40000122F8218820FFF7A5FF0D218820FFF72B
:103B5000A6FC04F00200D0B101218220FFF785FF0E
:103B600001220C218220FFF795FF01228021822073
:103B7000FFF764FF0D218220FFF791FC01220C2149
:103B80008220FFF787FF0D218220FFF788FC04F0D9
:103B9000010060B101218220FFF767FF01220721A8
:103BA0008220FFF74BFF0D218220FFF778FCFFF703
:103BB00013FF002010BD70B504460025002604F058
:103BC0000C0008B1822506E004F0F80008B1882551
:103BD00001E0032070BD12212846FFF760FC064675
:103BE00006EA040008B10120F4E70020F2E710B56E
:103BF000002412218820FFF752FC044604F0F8004C
:103C0000F82801D1002010BD04F0800040B9012047
:103C1000F9E700005801002060010020000C01407D
:103C200004F0400008B90220EDE704F0200008B9D4
:103C30000320E8E704F0100008B90420E3E704F0EB
:103C4000080008B90520DEE70020DCE7F8B50546E6
:103C50000E46022400208DF800008DF801008DF83A
:103C600002008DF803000021C848FDF7D8F90121B2
:103C7000C648FDF762FA0021C448FDF75EFAFFF777
:103C80007FFB0121C148FDF7EEF940F6FF70C04906
:103C9000086008E0BE4801680068401EBC4A106029
:103CA00009B90220F8BDBB49B848FDF7BDFA0028A4
:103CB000F0D000222946B548FDF72BFA08E0B448B9
:103CC00001680068401EB24A106009B90220E9E7A5
:103CD000B149AE48FDF7A8FA0028F0D00121AB4861
:103CE000FDF79DF9F1B2A948FDF70DFA08E0A848E3
:103CF00001680068401EA64A106009B90220D1E799
:103D0000A549891CA148FDF78FFA0028EFD00121B1
:103D10009E48FDF7A8F908E09D4801680068401E2C
:103D20009B4A106009B90220BCE79A499748FDF701
:103D30007BFA0028F0D0012229469448FDF7E9F9E2
:103D400008E0934801680068401E914A106009B974
:103D50000220A7E78F49491C8C48FDF765FA002827
:103D6000EFD017E0012C07D100218848FDF793F927
:103D700001218648FDF783F986493F318348FDF7E5
:103D800053FA38B18148FDF7C0F9611E0DF8010002
:103D9000601EC4B2002CE5D101217C48FDF77BF9FF
:103DA00000987FE710B551218220FFF74FFF0446AE
:103DB00004B90024A0B210BD70B54D218220FFF7D8
:103DC00045FF0546C5EB051040F31324C4EB041072
:103DD0000001D92190FBF1F0A0F10C04002C00DCD3
:103DE0000024A0B270BD70B54F218220FFF72EFFD6
:103DF000054605EB850040F3931460011D2190FBFF
:103E0000F1F0A0F11104002C00DC0024A0B270BD80
:103E10002DE9F04140218220FFF741FB00F08000B6
:103E20005E4908800846008820B3FFF7DCFF05469E
:103E3000FFF7C2FF04465A480068854203D9584834
:103E40000068281A02E056480068401B064655489C
:103E50000068844203D953480068201A02E05148A0
:103E60000068001B0746F019052803D94C48056077
:103E70004C4804604A4800884849488049480088BE
:103E80008880FFF78FFF4549C88001224B2182209F
:103E9000FFF78FFA00224B218220FFF78AFA3F4872
:103EA000BDE8F08110B5032260218820FFF781FA78
:103EB00061218820FFF7F3FA8007800D3A490860F6
:103EC00062218820FFF7EBFA374909680843364931
:103ED00008600846006800EB40106421484340F247
:103EE000EF21B0FBF1F03049086008460068401D42
:103EF0000A21B0FBF1F02C4908600846006810BDAB
:103F000038B505460C46002000900B212846FFF7E7
:103F1000C6FA00909DF80000204008B1012038BD8D
:103F20000020FCE770B505460C4622460B212846CA
:103F3000FFF73FFA002070BD70B505460C4600261D
:103F40000D212846FFF7ABFA064606EA040008B141
:103F5000012070BD0020FCE770B505460C462246E6
:103F60000D212846FFF725FA224614218820FFF765
:103F700020FA224615218820FFF71BFA2246162137
:103F80008820FFF716FA002070BD000000540040A2
:103F9000600100200100030082000700580100209A
:103FA00064010020680100206C01002070B5044607
:103FB0000D461646324629462046FCF7FCFE70BDEB
:103FC00010B5044600220421F748FFF7EFFF214611
:103FD000F648FDF72EFD00BF8021F448FDF77CFD7B
:103FE0000028F9D110BD10B504467020FFF7E8FF96
:103FF0000021EE48FDF71DFD00BF8021EB48FDF7D5
:104000006BFD0028F9D12146E848FDF712FD00BFFD
:104010008021E648FDF760FD0028F9D10122042146
:10402000E148FFF7C3FF10BD70B505460C462846B2
:10403000FFF7D9FF7220FFF7C3FF2112DB48FDF71E
:10404000F8FC00BF8021D948FDF746FD0028F9D1D2
:10405000E1B2D648FDF7EDFC00BF8021D348FDF763
:104060003BFD0028F9D101220421CF48FFF79EFF34
:1040700070BD01B581B000200090CD490198484342
:10408000009002E00098401E009000980028F9D1AE
:104090000CBD00B587B001211120FDF748FB0121BF
:1040A000C448FCF7A8FE0121C803FDF74DFB4FF4FF
:1040B000E050ADF8040003208DF8060018208DF8BC
:1040C000070001A9BC48FCF7C5FDB848FDF794FB03
:1040D0000020ADF808004FF48270ADF80A0000200F
:1040E000ADF80C000220ADF80E000120ADF8100074
:1040F0004002ADF812000020ADF81400ADF8160033
:1041000002A9AA48FDF79EFB0121A848FDF760FC23
:1041100007B000BD08B501210820FDF708FB042009
:10412000ADF8000003208DF8020010208DF8030088
:1041300069469D48FCF78EFD08BD10B5FFF7EAFF04
:10414000FFF7A7FF0520FFF794FF4FF40041E5209C
:10415000FFF76AFF01210020FFF766FF4FF480712F
:104160000120FFF761FF4FF4E0610220FFF75CFFE1
:1041700041F230010320FFF757FF00210420FFF731
:1041800053FF40F202210820FFF74EFF00210920D3
:10419000FFF74AFF00210A20FFF746FF00210C200D
:1041A000FFF742FF00210D20FFF73EFF00210F2007
:1041B000FFF73AFF00211020FFF736FF0021112002
:1041C000FFF732FF00211220FFF72EFF00211320FE
:1041D000FFF72AFF1420FFF74CFF41F2B0711020C7
:1041E000FFF722FF40F237111120FFF71DFF0520D6
:1041F000FFF73FFF40F239111220FFF715FF0520AE
:10420000FFF737FF4FF4E8511320FFF70DFF13219D
:104210002920FFF709FF0520FFF72BFF00212020B1
:10422000FFF702FF00212120FFF7FEFE06213020CC
:10423000FFF7FAFE40F201113120FFF7F5FE0321EE
:104240003220FFF7F1FE4FF483713520FFF7ECFECB
:1042500040F602313620FFF7E7FE40F20231372008
:10426000FFF7E2FE40F207713820FFF7DDFE07217D
:104270003920FFF7D9FE4FF4C0613C20FFF7D4FE90
:1042800040F20B213D20FFF7CFFE00215020FFF729
:10429000CBFEEF215120FFF7C7FE00215220FFF790
:1042A000C3FE40F23F115320FFF7BEFE4FF41C51F6
:1042B0006020FFF7B9FE01216120FFF7B5FE002164
:1042C0006A20FFF7B1FE00218020FFF7ADFE00213C
:1042D0008120FFF7A9FE00218220FFF7A5FE002123
:1042E0008320FFF7A1FE00218420FFF79DFE00211F
:1042F0008520FFF799FE10219020FFF795FE002101
:104300009220FFF791FE03219320FFF78DFE4FF4DB
:1043100088719520FFF788FE00219720FFF784FE23
:1043200000219820FFF780FE41F218010320FFF7DB
:104330007BFE40F273110720FFF776FE10BD10B52B
:10434000FFF7FBFE10BD01B5BDF800001B4908805A
:1043500008BD01B5BDF800001949088008BD70B559
:1043600004460D4621462020FFF75EFE2946212007
:10437000FFF75AFE70BD10B5044621120B48FDF739
:1043800058FB00BF80210948FDF7A6FB0028F9D1A2
:10439000E1B20648FDF74DFB00BF80210348FDF761
:1043A0009BFB0028F9D110BD000C0140003C0040EF
:1043B000A0860100001120000010014070010020C3
:1043C0007201002010B52220FFF70DFE7220FFF7CA
:1043D000F7FD10BD2DE9F047064689461746002433
:1043E0000025A046B04649464046FFF7B8FF00BF4B
:1043F00023E0FFF7E7FF00250FE037F81400012165
:10440000A940084020B9FE480088FFF7B4FF03E048
:10441000FC480088FFF7AFFF6D1C102DEDD3012283
:104420000421F948FFF7C2FD08F1010000F0FF0880
:1044300049464046FFF793FF641C182CD9D3BDE8CA
:10444000F08770B505460E461446A4F12000C4B2AC
:1044500004EB4400ED4901EB001231462846FFF71A
:10446000B9FF70BD2DE9F04107460C46002540F22A
:104470003F1609E0227831463846FFF7E2FFA6F101
:10448000100086B2641C6D1C207808B1012000E089
:104490000020142D01D2012100E000210840002855
:1044A000E8D1BDE8F08110B50446D9A12046FFF758
:1044B000D9FF10BD70B50546002440F23F11002021
:1044C000FFF74DFFFFF77EFF00BF03E02846FFF731
:1044D00052FF641CB4F5963FF8D301220421CA4868
:1044E000FFF764FD70BD2DE9F04104460D46164608
:1044F0001F46B44206DBA01B401C81B25020FFF7D0
:1045000093FD03E000215020FFF78EFD214651204E
:10451000FFF78AFDBD4206DBE81B401C81B252203A
:10452000FFF782FD03E000215220FFF77DFD2946C1
:104530005320FFF779FD29462046FFF710FFBDE81D
:10454000F08110B54FF4A073F022591EEF20FFF751
:10455000CAFF41F218010320FFF766FD10BD10B538
:104560000446FFF72FFF2046FFF705FF0122042135
:10457000A548FFF71BFD10BD2DE9F0410646884612
:1045800015461F46002441463046FFF7E8FE87B92E
:10459000FFF718FF00BF04E09A480088FFF7EBFE22
:1045A000641CAC42F8D3012204219748FFF7FEFCBB
:1045B0000EE000240AE093480088FFF7D0FF701C4B
:1045C000C6B241463046FFF7CAFE641CAC42F2D385
:1045D000BDE8F0812DE9F04105460E4617461C4620
:1045E0000023224631462846FFF7C6FFE919C8B224
:1045F000002322463146FFF7BFFF01233A463146EA
:104600002846FFF7B9FF301B401C81B201233A4610
:104610002846FFF7B1FFBDE8F0812DE9F0470646D7
:104620000F4690460320A0EB4809002445465EE073
:104630007A1991B23219D0B2FFF791FE7148008811
:10464000FFF78DFF7A1B91B23219D0B2FFF787FEC8
:104650006C480088FFF783FF7A1991B2321BD0B201
:10466000FFF77DFE67480088FFF779FF7A1B91B25C
:10467000321BD0B2FFF773FE62480088FFF76FFF6E
:104680003A1991B27219D0B2FFF769FE5D480088FD
:10469000FFF765FF3A1B91B27219D0B2FFF75FFEC8
:1046A00058480088FFF75BFF3A1991B2721BD0B2ED
:1046B000FFF755FE53480088FFF751FF3A1B91B2B0
:1046C000721BD0B2FFF74BFE4E480088FFF747FF42
:1046D000B9F1000F04DA062000EB8400814405E004
:1046E000601B0A2101EB800081446D1E641CAC42FA
:1046F0009ED9BDE8F08770B506460024002540F23B
:104700003F110020FFF72BFEFFF75CFE00BF14E017
:1047100000250FE056F824000121A940084020B9E7
:1047200037480088FFF727FE03E036480088FFF788
:1047300022FE6D1C202DEDD3641CB4F5166FE7D35B
:10474000012204213048FFF731FC70BD70B50646E8
:1047500000240025344800884FF6C77108403249CC
:1047600008800846008840F0080008803046FFF7BF
:104770003AFC7320FFF724FC00BF16E0FF212A4813
:10478000FDF757F900BF80212748FDF7A5F900285C
:10479000F9D100BF01212448FDF79EF90028F9D086
:1047A0002148FDF748F9681CC5B2052DE6DBFF215D
:1047B0001D48FDF73EF900BF80211B48FDF78CF92D
:1047C0000028F9D100BF01211748FDF785F900281D
:1047D000F9D01548FDF72FF90446FF211248FDF7DF
:1047E00028F900BF80211048FDF776F90028F9D19B
:1047F00000BF01210C48FDF76FF90028F9D015E042
:104800007201002070010020000C01406EBA000807
:104810002020202020202020202020202020202098
:104820002020202000000000003C00402D48FDF723
:1048300002F9E1B240EA0124012204212A48FFF7EB
:10484000B5FB284800884FF6C77108402549088005
:10485000204670BD10B500211020FFF7E5FB0021B8
:104860001120FFF7E1FB00211220FFF7DDFB002103
:104870001320FFF7D9FB1420FFF7FBFB41F2B071C7
:104880001020FFF7D1FB40F237111120FFF7CCFBCE
:104890000520FFF7EEFB40F239111220FFF7C4FBB1
:1048A0000520FFF7E6FB4FF4E8511320FFF7BCFBB0
:1048B00013212920FFF7B8FB0520FFF7DAFB40F2B0
:1048C00073110720FFF7B0FB10BD10B540F2731154
:1048D0000720FFF7A9FB10BD10B500210720FFF747
:1048E000A3FB10BD003C0040000C014038B504465D
:1048F000654951F824000121FCF719FF634830F89D
:104900001400ADF8000010208DF8030003208DF88E
:1049100002005F4951F824006946FCF79BF938BD55
:104920005A4931F810105A4A52F820201161704744
:10493000564931F81010564A52F8202051617047FC
:10494000534951F82010C968504A32F8102051409C
:104950004F4A52F82020D16070477FB504460D467B
:104960004C4951F8241041F001000121FCF7DFFE11
:10497000494830F81400ADF80C0004208DF80F0001
:10498000464951F8240003A9FCF764F9012D2CD104
:10499000434A12F81410434A12F81400FCF770FA54
:1049A000414830F81400019000208DF808001CB137
:1049B0000C208DF8090002E008208DF80900012084
:1049C0008DF80A0001A8FCF765F8384810F81400C3
:1049D0008DF800000F208DF801008DF802000120F5
:1049E0008DF803006846FBF7B6FD7FBD10B50446A1
:1049F000294A32F81410294A52F82400FCF7BDF96C
:104A000010BD38B504460D46294951F8241041F02F
:104A100001000121FCF78BFE4CB901210820FCF7B5
:104A2000EAF9244951F824000121FCF78DFE2248BF
:104A300030F81400ADF8000018208DF803000320B2
:104A40008DF802001D4951F824006946FCF702F96F
:104A50001B4830F81400ADF8000004208DF8030066
:104A6000164951F824006946FCF7F4F8154951F845
:104A700024002946FDF7ADF8124951F82400012120
:104A8000FDF733F938BD000048CC000840CC0008E1
:104A90007401002060CC000858CC0008840100207C
:104AA00078CC000872CC00086CCC00087ECC0008E2
:104AB00088CC000884CC00088CCC0008940100202D
:104AC0008ECC00089001002010B504462078AF4934
:104AD000087060784870A0788870E078C870207995
:104AE00008716079487121460020FDF760FF10BD14
:104AF00070B50446062084F82000A448007884F8A5
:104B00002100A248417822200155A0488178232025
:104B100001559E48C178242001559C4801792520E3
:104B200001559A4841792620015540F2DC502085F4
:104B3000322084F82A00022295499648FDF7A0FF0A
:104B4000042295499548FEF746F8002506E093496A
:104B500001EB05100121FEF79DF86D1C042DF6DB1D
:104B6000002507E08B4901EB05104FF44001FDF7EC
:104B7000F0FF6D1C022DF5DBFDF7A7FD70BD0146B2
:104B800087480068006800F0004008B100207047C6
:104B9000C1F30C00824A12685060814800680068C6
:104BA00040F040507E4A126810607D4800680068FE
:104BB00040F000407A4A126810607A48406900F07C
:104BC000040020B10420774A5061002050607448EE
:104BD0000068C068724A10600120D8E77048006819
:104BE000806870472DE9F04180460E460025FFF7AA
:104BF000F5FF0746344607E062897819616806F0D8
:104C0000EBFB608905442468002CF5D1A8B2FFF7BE
:104C1000B6FF0020BDE8F0811EB500210022009201
:104C200001920292604A1268126802F0004282B158
:104C3000002200925B4A526902F0800222B1802277
:104C4000584B5A6100229A609DE81C0080E81C00C5
:104C50001EBD554A1268128802F40042B2B9524A87
:104C60001268128802F4807282B14F4A1268128868
:104C700002F4007252B14C4A12681268C2F30D423B
:104C8000111F494A12689268019200E000210091C8
:104C9000454A12680292444A1268D268424B1A602E
:104CA0009DE81C0080E81C0000BFD1E72DE9F0431F
:104CB00087B081460026002501A8FFF7ADFF01A8B7
:104CC00007C804AB07C3049887B2DDF81480032239
:104CD0003946104601F0EAFF054665B12C4608E06A
:104CE000628908EB0601606806F076FB608906447D
:104CF0002468002CF4D14FF0004006990860294840
:104D0000406900F0800020B18020264948610020E1
:104D10008860284607B0BDE8F08370B50446204699
:104D2000FFF7C4FF064616B94FF0FF3070BD2146AD
:104D300030462269904705461DB1304601F06AFFB2
:104D400000262846F2E770B5044600BF0CB900BF44
:104D500000BF00BF082001F04EFD054615B94FF019
:104D6000FF3070BDE561732084F82B0074212C2086
:104D700001550E4860610E48A06104F121002860D1
:104D80002046FFF7B5FE0020EBE70000A001002061
:104D9000901A0020B0020020D002002070020020F3
:104DA00048010020009002404C010020FB5D0008FB
:104DB000E54B000870B505460C46164665A17820FF
:104DC000FFF750FB1F20FFF7BEFA3C2328224FF4C9
:104DD0009B71B420FFF7FEFB4FF47840FFF7B3FA66
:104DE0003C232822E621B420FFF7F4FB4FF6E070C5
:104DF000FFF7A9FA3C2328229621B420FFF7EAFB0B
:104E00004FF4FC60FFF79FFA3C2328224621B42090
:104E1000FFF7E0FB55480460002070BD2DE9F0432A
:104E20008DB08046894615461C46149E2068000EAB
:104E30008DF820002068000C8DF821002088000AE1
:104E40008DF8220020788DF8230068680A909DF87C
:104E500020009DF82110CDE900109DF822309DF82A
:104E6000232043A103A806F0C9F947A14820FFF772
:104E7000F9FA03A96020FFF7F5FA03F00AF90746EB
:104E800004224749384602F078FEAFF2D7030422E5
:104E90002146384602F0C8FF284601F0BBFE0DB09F
:104EA000BDE8F08370B586B03EA30FCB01AC0FC454
:104EB00005F0D7F905461DB13E4805F0FDFA05900D
:104EC000502205A9284605F06EF901A806F01AFA45
:104ED00086B203223146002001F0E8FE044664B1A8
:104EE00001A806F00FFA86B2324601A9204602F068
:104EF000B0F92146284605F04CF9284605F082F91C
:104F000004222749284605F08BF841F2B35205A93F
:104F1000284605F048F9284908700846007828B95D
:104F20000022AFF20711284605F07AF9204601F079
:104F300071FE06B070BD38B50446009401231A46D0
:104F400069460A48006804F0E3FC0848006804F079
:104F500064FD38BD4C656420636F6E74726F6C20A5
:104F6000737461727465642000000000AC0100205D
:104F700069733A2025642E25642E25642E2564202D
:104F800020202020000000005468652073657276A0
:104F900065722773204950206164642E0000000070
:104FA000D4CC00085A4441524F56415F42524154BA
:104FB0004F4B00006B01A8C0B00100200020FE494B
:104FC0000860704770B504460D46204601F040FB6E
:104FD00070BD70B505460E462C46304602F020FDE9
:104FE000D8B9207800F00200022814D10021304600
:104FF00003F05CF80021304603F052F800213046FF
:1050000003F051F800221146304603F054F82046D0
:1050100001F01EFB01E0FF20207070BD2DE9F84F6C
:1050200005460C46E5A6E7A70FF2A0380FF2A43913
:105030000FF2A83A0FF2AC3BECA00090ED480068EC
:10504000401CEC49086008460068012801DD00208A
:10505000086003223146204606F073F990B9E5480E
:10506000006801280ED14CF20301E348FBF79FFED4
:1050700000230B22E1A1284604F04AFC284604F054
:10508000CCFC6CE003223946204606F05AF990B970
:10509000D848006801280ED14CF20301D648FBF72E
:1050A00088FE00230C22D8A1284604F031FC2846B3
:1050B00004F0B3FC53E004224146204606F041F9D7
:1050C00038B9CC480068012803D10020FFF738FC2C
:1050D00045E004224946204606F033F930B9C54878
:1050E0000068012802D1FFF72BFC38E0042251466A
:1050F000204606F026F938B9BE480068012803D1D9
:105100000220FFF71DFC2AE004225946204606F043
:1051100018F938B9B7480068012803D10320FFF710
:105120000FFC1CE004222046009906F00AF9B0B9F1
:10513000B0480068012812D100230C22B5A12846EE
:1051400004F0E6FB284604F068FC284602F068FC00
:105150004CF20301A848FBF72CFE00F0BDF8BDE8B7
:10516000F88F2DE9F04104460D4616461F463B4692
:10517000324629462046FDF707F8BDE8F0812DE9C3
:10518000F04104460F464FF0020804250026032292
:10519000A3A1204606F0D5F8002846D119E0605DAD
:1051A0002C2802D16D1C761C13E0605D30280EDBCC
:1051B000605D39280BDC605D30389B4951F8261062
:1051C00001EB810100EB4100974941F826006D1C7D
:1051D00000BF0E2DE3DB9448C068012803D11920DD
:1051E0009149C86002E000208F49C86020792D28CD
:1051F00004D18D48006840428B490860DFF828C21E
:10520000DCF80C30DCF80820DCF80410DCF80000D6
:10521000FFF7A7FF0023032284A1384604F078FBA0
:10522000384604F0FAFB06250026032280A120461A
:1052300006F087F828B104227EA1204606F081F806
:1052400018B921463846FFF7E9FE7748002101608A
:1052500041608160C160BDE8F0812DE9F05F824668
:105260000D4614469B46002602274FF00408B1461F
:105270007249606808604FF4C870FAF7F3FF294676
:105280006E480068FFF77BFF2189284602F080FD09
:1052900000206A490860204601F0BCFCBDE8F09F90
:1052A0002DE9F04107460C46154675B9644800687B
:1052B00006F028F886B2002332466148016820468D
:1052C00004F026FB204604F0A8FB5E49204602F0CD
:1052D000E7FE0020BDE8F08170B55B4805F0ECF812
:1052E0005A49086002F0D5FE0446D4B141F60A22BC
:1052F0005749204602F041FC054605F10B0050B12C
:10530000FF21204602F0B1FC0446AFF26B012046BB
:1053100002F0CFFE04E0204602F082FB4D49087007
:1053200000BF70BD7CB5012001F065FA060001D117
:10533000401E7CBD02F0ADFE0446434805F0BCF8BB
:1053400001902CB14048353805F0B6F8009005E0E2
:10535000304601F07DF94FF0FF30EAE73146204654
:1053600002F09CFEAFF2A331204602F09FFE3549C9
:10537000204602F095FE0021204602F094FE0A220B
:10538000AFF2B131204602F096FE41F6F4123049F8
:10539000204602F0F2FB054605F10B0050B1FF215B
:1053A000204602F062FC0446AFF20B11204602F0E8
:1053B00080FE54E050E00000D00100206F6E0D0A26
:1053C000000000006F66660D0A0000006C65643125
:1053D0000D0A00006C6564320D0A00006C656433D0
:1053E0000D0A00006C6564340D0A0000657869746C
:1053F0000D0A0000CC010020000C01404C45445334
:10540000204F4E0D0A0000004C454453204F4646A5
:105410000D0A0000476F6F64627965210D0A000074
:105420005345547C00000000702600204F4B2100A3
:105430006C6564006578697400000000C401002098
:10544000C80100205B5200086B01A8C0B401002015
:10545000D4CC0008B8010020204602F0E1FA002078
:1054600067E72DE9F04788B082460E4615461C4690
:10547000DDF840902068000E8DF81C002068000CBC
:105480008DF81D002088000A8DF81E0020788DF808
:105490001F009DF81C009DF81D10CDE900109DF81F
:1054A0001E309DF81F202DA102A805F0A7FE40F296
:1054B0002B222146304604F076FE2946304604F081
:1054C00068FE304604F09EFE07222A49304604F06A
:1054D000A7FD0022AFF27501304604F0A1FE02F0F4
:1054E000D8FD0746C7B141F60A222146384602F0E8
:1054F00044FB804608F10B0050B1FF21384602F012
:10550000B4FB0746AFF26721384602F0D2FD02E055
:10551000384602F085FA00BF284601F07BFB08B050
:10552000BDE8F0870346002070472DE9F0410746AB
:105530000D46144674B91048006805F0E3FE86B2C3
:10554000002332460C480168284604F0E1F9284659
:1055500004F063FA2046BDE8F081000069733A2048
:1055600025642E25642E25642E25642020202020ED
:1055700000000000D4CC0008C801002070B504462B
:1055800000BF0CB900BF00BF00BF00BF606808B912
:1055900000BF00BF00BF0EE02546246800BF68685A
:1055A00008B900BF00BF00BF686801F033FB29469F
:1055B000062001F011FA002CEED170BD10B50024C8
:1055C00046E004EB8400FE4901EB8000C07B401CF8
:1055D00004EB8401FA4A02EB8101C87304EB8400F6
:1055E000114601EB8000807B022806D104EB840089
:1055F00001EB8000C07BF0280EDA04EB8400F04958
:1056000001EB8000807B012820D104EB840001EBBA
:105610008000C07B022819DB04EB8400E84951F8C4
:10562000200060B104EB8401E54A52F82100FFF745
:10563000A5FF002004EB8401E14A42F8210000208C
:1056400004EB8401DE4A02EB81018873601CC4B262
:105650000A2CB6DB10BD2DE9FC5F05460F464FF066
:105660000A08C1460A260024A34600200190B2463B
:105670000090CDB1D348007800EB8000D04901EB19
:105680008000807B02280FD12868CE49097801EB81
:105690008101CB4A02EB81014968884204D1C948A3
:1056A000007840B2BDE8FC9F002473E00A2E08D1C8
:1056B00004EB8400C24901EB8000807B08B966B22C
:1056C00066E004EB8400BE4901EB8000807B01288A
:1056D00036D165B1286804EB8401B94A02EB810137
:1056E0004968884203D1B748047060B2DAE704EB36
:1056F0008400B34951F8200088B104EB840001EB29
:105700008000C17B0098814242DB4FFA84FA04EBAF
:105710008400AB4901EB8000C07B009038E004EBD3
:105720008400A74901EB8000C07B584530DB4FFA6D
:1057300084F804EB840001EB800090F80FB027E0C0
:1057400004EB84009E4901EB8000807B02281FD17E
:1057500065B1286804EB8401994A02EB810149682C
:10576000884203D19748047060B29BE704EB840041
:10577000934901EB8000C17B0198814208DB4FFA1D
:1057800084F904EB84008E4901EB8000C07B01901A
:10579000601CC4B20A2C89DB0A2E02D107F001007A
:1057A00010B107F0020010B14FF0FF307AE70A2E77
:1057B00001DAF4B22AE0B9F10A0F0BDA09F0FF04BA
:1057C00000BF04EB84007E4951F8200008B100BFFF
:1057D00000BF1BE0B8F10A0F02DA08F0FF0415E081
:1057E000BAF10A0F0FDA0AF0FF0404EB8401744ADD
:1057F00052F82100FFF7C2FE002004EB8401704A3A
:1058000042F8210002E04FF0FF304BE700BF0A2CC6
:1058100001DB00BF00BF00BF002004EB8401684A29
:1058200002EB8101887345B105B900E0286804EBFB
:105830008401634A02EB81014860002004EB84018B
:105840005F4A02EB8101C8735E48047060B229E7C9
:105850002DE9F04705460F46904699467E6800BF01
:1058600095F82000062801D000BF00BF00BF062425
:1058700008E0601EC4B219F80400305518F804108E
:10588000B01D0155002CF4DC4FF4006004F00DFF56
:10589000B08139462846AA699047BDE8F0872DE9CE
:1058A000F05F05460E4690469A4600BF95F82000E8
:1058B000062801D000BF00BF00BF9EB1306888B18C
:1058C0002946304605F046F960B94FF0704004F0C3
:1058D000F8FE316800EA01094FF0604004F0F1FE83
:1058E000814503D16FF00900BDE8F09F5146304675
:1058F000FFF7B1FE0446002C01DA2046F4E702204F
:1059000004EB84012E4A02EB8101887304EB8400CE
:10591000114601EB8000056106270AE0781EC7B238
:1059200018F8071004EB8400254A02EB80000830C9
:10593000C155002FF2DC002004EB8401204A02EB69
:105940008101C8731CE004EB84001D4951F82090CC
:1059500004EB84011A4AD9F8000042F82100D9F872
:1059600004B04946062001F037F8434605F121020C
:1059700059462846FFF76CFF584601F04BF900BF27
:1059800004EB84000E4951F820000028DBD100BF51
:10599000AAE72DE9F04180460D4616461F46022132
:1059A0002846FFF758FE0446002C1CDB04EB84005D
:1059B000034901EB8000807B022814D104E0000041
:1059C00080260020D401002004EB840001EB80003D
:1059D0000830306004EB840001EB8000001D38606B
:1059E0002046BDE8F0814FF0FF30FAE770B504467D
:1059F0000E4600BF14B900BF00BF70BD00BF756880
:105A0000D5F81A00A1680840D4E901121140884273
:105A100000D0F2E70023AA1D05F11A012046FFF786
:105A20003EFF00BFE9E72DE9FC47064688461746DA
:105A300000BF1EB900BF00BFBDE8FC8700BF78896A
:105A40002A2803D2384601F0E5F8F5E77C68012002
:105A500004F02BFEE189884214D140F2046004F086
:105A600024FE618A88420DD14FF4006004F01DFECF
:105A7000218A884206D140F6060004F016FEA1896C
:105A8000884203D0384601F0C5F8D5E7E0690190B7
:105A9000D4F826000090706810B94FF0000907E0B4
:105AA00000987168884201D1012000E00020814601
:105AB000B9F1000F07D0012304F1160201A9304605
:105AC000FFF7EDFE06E0002304F1160201A93046BF
:105AD000FFF7E5FEA08A04F0E8FD012802D00228C5
